:020000040000fa
:100000000001040000000000ec020000a20100005a
:1000100092010000c4010000ec020000ec020000ac
:10002000ec020000ec020000ec020000ec02000018
:10003000ec020000ec020000ec020000ec02000008
:10004000ec020000ec020000ec020000d401000011
:100050000a020000ec020000ec020000ec020000ca
:10006000ec020000ec020000ec020000ec020000d8
:10007000ec020000ec020000ec0200008001000035
:10008000ec020000ec02000060020000960200009a
:10009000ec020000ec020000ec020000ec020000a8
:1000a000ec020000ec020000ec020000ec02000098
:1000b000ec020000ec020000ec020000ec02000088
:1000c000ec020000ec020000ec020000ec02000078
:1000d000ec020000ec020000ec020000ffffff0059
:1000e000ffffff00ffffff00ffffff00ffffff001c
:1000f000ffffff00ffffff00ffffff00ffffff000c
:10010000ffffff00ffffff00ec020000a201000064
:1001100092010000c4010000ec020000ec020000ab
:10012000ec020000ec020000ec020000ec02000017
:10013000ec020000ec020000ec020000ec02000007
:10014000ec020000ec020000ec020000d401000010
:100150000a020000ec020000ec020000ec020000c9
:10016000ec020000ec020000ec020000ec020000d7
:10017000ec020000ec020000ec0200008001000034
:10018000ec020000ec020000600200009602000099
:10019000ec020000ec020000ec020000ec020000a7
:1001a000ec020000ec020000ec020000ec02000097
:1001b000ec020000ec020000ec020000ec02000087
:1001c000ec020000ec020000ec020000ec02000077
:1001d000ec020000ec020000ec020000ffffff0058
:1001e000ffffff00ffffff00ffffff00ffffff001b
:1001f000ffffff00ffffff00ffffff00ffffff000b
:10020000cf752100007f220000018800000000005f
:10021000050007000c000700a038020000000000e5
:100220000040da000000fe004440a900605b2000ae
:100230000000e0000300320000002000a001880060
:100240004440a80000000600e068240001002000ef
:100250001600370062004000e080480091018800ed
:100260009001ba0062004000e080480091018800df
:100270009002ba0062004000e08048000002eb00fb
:100280006028e10005003a008301e900070033001f
:10029000038009000059eb00040037006128e100e9
:1002a000010032000082eb00050007009101880088
:1002b0001001ba000200e000e6ff3a00000005006d
:1002c000910188008002780062004000e0804800d0
:1002d0003559ba008301e900080032002559ba00f7
:1002e0008301e900050032000400e000f4ff320061
:1002f00015d9ba008301e900f1ff3a0000000600b9
:10030000801f78000000fa009028a80086a0a900ad
:1003100010002000404688000080fa004f0078005e
:10032000004006003400f800881f78000800200014
:10033000a80188004f0478000000fa009808a8007f
:10034000feff3700809fbe003400f8000000200050
:10035000a00188000000fa00113a8000000220008d
:10036000008060000000e000020032009828a80031
:100370000000fe009848a8000080fa003400f90050
:100380004f00be00004006003400f800881f7800cf
:1003900008002000a80188004f0478000000fa003f
:1003a0009868a800feff37003600f800809fbe0066
:1003b000829fbe00849fbe00869fbe000200fa009e
:1003c00006003700a908a80090108000004f7800b0
:1003d000204580009e4078000328070070108000b0
:1003e000610060000000e000f6ff3a00a928a800c4
:1003f0008520a9000e22a9000080fa004f03be004c
:100400004f02be004f01be004f00be003600f90093
:10041000004006003600f800809fbe00829fbe00ac
:10042000849fbe00869fbe000000fa003045800019
:10043000a00090003045800030009000808f500078
:1004400003003a00a988a8008d40a90014003700d5
:100450008540a90005003700a9e8a80030458000c4
:10046000002807000080fb0080108800a9a8a800d1
:100470007110800000202000008060000000e0007b
:1004800007003a00a9c8a80030458000a0009000ed
:100490003045800030009000808f5000eeff3a0021
:1004a000aa08a8000080fa004f03be004f02be0059
:1004b0004f01be004f00be003600f90000400600ac
:1004c0003600f800809fbe00829fbe00849fbe0061
:1004d000869fbe000200fa0006003700b0a8a80000
:1004e000e0108000004f7800604580009e4078005a
:1004f000bd270700c0108000610060000000e00020
:10050000f6ff3a00b0c8a8008700a9001822a90089
:100510000080fa004f03be004f02be004f01be0034
:100520004f00be003600f900004006003600f8001b
:10053000809fbe00829fbe00849fbe00869fbe003b
:100540000000fa0070458000a00090007045800017
:1005500030009000808f500003003a00b128a800be
:100560008f20a900140037008720a900050037005c
:10057000b188a80070458000ba2707000080fb0002
:10058000d0108800b148a800c110800000202000d1
:10059000008060000000e00007003a00b168a80099
:1005a00070458000a00090007045800030009000f1
:1005b000808f5000eeff3a00b1a8a8000080fa003a
:1005c0004f03be004f02be004f01be004f00be00f1
:1005d0003600f900004006000040da000000fe008e
:1005e000889fbe008a9fbe008c1f7800c60007004f
:1005f000cd00330003866c006450e1002e00320011
:100600006420e100330032006150e1002f0032002d
:100610006120e1003100320085855500eb07b00014
:1006200009002000080420000500370008044400e9
:1006300089844c000a0031000603430087834b0085
:100640000001530081815b00f8ff33000203be000c
:100650000800a0000804440089844c00f6ff39001b
:10066000c639dd0083017300010032001300200051
:100670008904d1000884d3000998a3000500320042
:100680000800a7000300a0008904d1000884d3005b
:100690008b05e8008904d1000884d3000001eb0039
:1006a0000281d2006631070001f0a1000cf0a70022
:1006b00001f0a000a50037006420e100a70032008f
:1006c0000801be000200be00f7ff37006120e10014
:1006d000a20032006000b800f3ff370000002000e5
:1006e00001f82700f0ff3700889fbe008a9fbe00f8
:1006f000841f7800840007004f0078001100330049
:10070000f0ff2f00838f6c0006003b00040565009e
:100710000a00a7000800370009f0a600100020001a
:1007200008003700820f5400838f5c0003003900fb
:100730001000200001003e000000200009f0a7008a
:100740000000ea004f05be004f04be000000e000bc
:100750000000060014002000e3ff3700f4ff2f0024
:10076000e1ff37000001be009e3107000470a700c2
:1007700003f0a1006509b100160032000d0035003c
:100780006828e10006003500f0ff2f00f1ff270088
:100790000300e00013003b000100280000000500fa
:1007a00000004000818048008502e900fcff3a001b
:1007b00008003700f88f420002003c008000eb0088
:1007c000000005008100d1000080d3008502e80010
:1007d000fcff3a000300e00002003b006000100054
:1007e000e0801800000006000001be007d31070017
:1007f0000470a70003f0a10003f8a30013003a005f
:100800006509b10010003200090035006928e100d7
:100810000200350001002800000005000000400033
:10082000818048008502e900fcff3a0000000600d4
:10083000f88f4200050035008100d1000080d30010
:100840008502e800fcff3a00000006008000eb0093
:1008500000000500889fbe008a9fbe000105780049
:100860000100e0000400350008003c000000e0004a
:10087000200032000500370060001000e080180002
:1008800002003b0001f02c001a0037000004be00fb
:100890006011b8006b0920000982cf000200390006
:1008a0000882cf000441b000694252000e003200bd
:1008b00008003b0082817100610164008904d1005d
:1008c0000884d3008b05e8000442e800f9ff3a00f1
:1008d000050037000804440089844c008b05e900ba
:1008e0000442e900fbff3a00d53007000af0a700f8
:1008f00001f0a0004f05be004f04be00000006003e
:100900000400200078ff37000004be0035310700e6
:100910000003be000405be000200be003131070026
:10092000844f7500000006000200be006450e10024
:10093000050036006420e100020036000968a300cb
:1009400001003a000800be000160a0004f067800d8
:100950004f05be004f04be0000000600f0ff2f0050
:10096000f1ff2700f9ff3700889fbe008a9fbe0075
:100970008c1f7800e4ff0700ebff330003866c0058
:100980006450e100240032006420e10027003200be
:100990006150e100220032006120e10021003200bc
:1009a0008b854200eb07b1000134b800003ab80073
:1009b0000804420089844a00013ab8000030b800b7
:1009c0008880400009014a00040033000000400014
:1009d00081804800020149008b05e900c909dd005a
:1009e000830170000100320013002000c814de00f3
:1009f0004814dd004709de001200b200c808de001e
:100a0000088470008e30070001f0a1000cf0a700f0
:100a100001f0a000cdff37006120e100cfff3200e0
:100a20000801be000200be00f7ff37006150e10080
:100a3000fcff3a00c9ff37000000050003f0a200e8
:100a4000889fbe008a9fbe008c1f7800aeff070003
:100a5000b5ff33006450e1004f0032006420e10034
:100a60005200320003826c0007003b000905d000f1
:100a70000306d000820f54000c065d00020039000e
:100a80000200320089017800030678008582550053
:100a900004003d000003fd008103fd008502ea0023
:100aa0008b854200840f720002003b006000100042
:100ab000e08018006011b8000005eb007a28e10022
:100ac0000a00390006007800c75ddd00f707b200b4
:100ad000878075002d003700828171000a0178003f
:100ae000610560008180d1000080d3008502e900ab
:100af000f9ff3b00060440008784480002003b00e9
:100b000060041400e0841c000988a3000700320080
:100b10008a81710082817100610164008904d100c1
:100b20000884d3008b05e800170037000978a3007c
:100b300013003a000b00e000130034008b05e900bd
:100b40000804440089844c000a4474000978a30016
:100b50000d003a000b00e000070034008b05e900af
:100b60000804440089844c0001003a000b00200076
:100b70000978a300f7ff32000001eb000200370004
:100b8000828171000a0178002d3007000cf0a70067
:100b900001f0a0006dff37006420e10002003a0080
:100ba000838f6c006dff33000801be000200be00a1
:100bb00066ff37006011b800130037006022b800ec
:100bc000060220000000d0008180d2000482d20002
:100bd0008582d2000000a0000202520083825a00e7
:100be000030031000202420083824a000000a1009b
:100bf0000603e900f3ff3a0000000600efff0700dc
:100c00000400be0000000600889fbe008a9fbe0050
:100c1000008270000402710004827100260032001c
:100c20000004be000200be006011b8006b09200085
:100c3000950220000182cf000a0039000541b10071
:100c40000082cf00070039000541b1000982cf00c2
:100c5000040039000541b1000882cf0001003900cd
:100c60000541b10005425200120032000a003b006b
:100c700082817100610164008100d1000080d30095
:100c80008984d3000884d3008b05e8000442e8007f
:100c9000f7ff3a00070037000804440089844c003d
:100ca00000004800818048008b05e9000442e9000b
:100cb000f9ff3a00e22f07004f05be004f04be00c7
:100cc000000006008001780002003700b15978006a
:100cd0000201e9000200e000fcff3a00000006000b
:100ce000000000000000000000000000803f000045
:100cf000cdcc0000ac3f000048e10000ba3f00004e
:100d0000a69b0000c43f000079e90000c63f000038
:100d100027310000c83f0000b0720000c83f00004b
:100d200039b40000c83f0000fed40000c83f0000f6
:100d30007cf20000c83f0000de020000c93f000056
:100d40000f0b0000c93f0000080000000800000071
:100d50000800000008000000080000000a00000071
:100d60000a0000000a0000000a0000000a0000005b
:100d70000a0000000a000000080000002a27000006
:100d80007a37000037aa00007f3f0000afb00000b4
:100d9000e03c000060910000bf3d00008c6400005a
:100da000893f0000d80c000023c00000f04f000075
:100db0007340000077d6000035c000001992000093
:100dc000733f000000000000000000000000000071
:100dd000000000001f4800009e430000d7090000eb
:100de00092c40000c48400009344000065fb00002e
:100df000174400001d6c0000dec400002d900000b0
:100e000024440000a83700001a440000e533000025
:100e10000bc4000046950000fc42000000000000ea
:100e200000000000000000000000000060c600009c
:100e3000594400005269000081c400008816000077
:100e4000f04400002206000066c500001b160000ea
:100e5000bf440000a26d0000d6430000a42600009d
:100e60008f440000df860000c4c4000094a6000088
:100e7000e24300000000000000000000000000004d
:100e8000000000002b340000bf480000c0ee00004e
:100e9000d0c80000aec3000028c800001026000023
:100ea000574800001682000036470000c5ad00001c
:100eb000e8c60000ba0f00007046000046dd0000e2
:100ec00012c70000b3f10000564600000000000009
:100ed000000000000000000000000000bc54000002
:100ee00018c900007b61000089480000a786000047
:100ef0004d4800006e540000a2c700003c1b0000db
:100f0000544800002a930000a3c7000017b0000057
:100f1000acc700004fe90000c34500009fb50000ca
:100f200087460000000000000000000000000000f4
:100f300000000000da7700002bcb000020850000c5
:100f4000304a000067fc0000d74a0000c8ae00002d
:100f50008c490000a90400005eca0000d7c600004a
:100f6000594900009c080000ab490000acc90000d2
:100f7000c4c900008cfd000087c60000f69a00007e
:100f8000b74800002df100007ac7000069be0000dc
:100f9000924800006e35000024480000276a0000d7
:100fa0008d470000d787000079c600002538000073
:100fb00089c70000468c00004dc700009c910000ce
:100fc000a1c600001df6000064c600007c78000089
:100fd000d34500009f270000b64500003e290000d1
:100fe00058450000e17c0000ca4b00002b64000063
:100ff00084cb0000ad710000f7ca0000ca190000e0
:10100000db4a000087e3000021ca00008fa3000034
:10101000fac800009a7b0000da490000298e00001f
:101020007ac900008e3f00009a4800006e6a0000f6
:1010300005480000dbeb0000b2c7000042ed0000f5
:1010400034cb0000ef9b0000aa4a00005a46000083
:10105000034b0000b67000005649000051790000b3
:10106000bd480000fb700000dec90000b2c30000f4
:1010700098c80000ff45000031c9000025ee0000bf
:101080002cc800005c000000a24600006a050000b9
:101090005d48000014e70000384c0000da41000011
:1010a0006dcb00008b400000a14900006d4b00009b
:1010b000104b00002628000031cb00001ad600009b
:1010c000864a000043fc000026c900008f5800003b
:1010d00007ca0000a5130000d3c900004b0500009b
:1010e00041c800005d0b0000894900009cdb000046
:1010f000154d000088b200001e4e0000d7a8000069
:10110000cfcd0000fd7a0000aa4c00007adb000081
:10111000f9cc00009f6a0000f7470000361200007b
:101120001c4c00009cd900000c4b0000c65700006e
:10113000c8cb000080b800009ecb00009ea300003a
:101140008b4b0000e8260000644f00004d37000084
:10115000504f0000eb9c000055ce0000e44f000013
:10116000c9ce0000bc7c0000be4d00000a45000056
:10117000accd0000834c0000b2cb000091650000b4
:1011800084cd0000925a0000acca000010f20000aa
:10119000a3c9000015a100009f4c0000d3b50000ba
:1011a000fe4d0000cca60000014d0000e0930000c1
:1011b00081cd0000e99d0000654d0000963a0000d9
:1011c00036cd0000e0270000ffcc0000b42a00006c
:1011d000734b0000cabf00006a4c00001069000099
:1011e000d5ca000000000000000000000000000060
:1011f0000000000000000000058000000f800000db
:101200000a0000001b8000001e0000001400000007
:101210001180000033800000360000003c00000018
:1012200039800000280000002d8000002780000089
:101230002200000063800000660000006c000000d7
:1012400069800000780000007d8000007780000049
:101250007200000050000000558000005f80000018
:101260005a0000004b8000004e00000044000000c7
:1012700041800000c3800000c6000000cc000000d8
:10128000c9800000d8000000dd800000d780000089
:10129000d2000000f0000000f5800000ff80000098
:1012a000fa000000eb800000ee000000e400000007
:1012b000e1800000a0000000a5800000af800000d9
:1012c000aa000000bb800000be000000b4000000c7
:1012d000b180000093800000960000009c00000098
:1012e00099800000880000008d8000008780000049
:1012f0008200000083810000860100008c01000054
:1013000089810000980100009d8100009781000004
:1013100092010000b0010000b5810000bf81000013
:10132000ba010000ab810000ae010000a401000082
:10133000a1810000e0010000e5810000ef810000d4
:10134000ea010000fb810000fe010000f401000042
:10135000f1810000d3810000d6010000dc01000013
:10136000d9810000c8010000cd810000c7810000c4
:10137000c201000040010000458100004f810000d3
:101380004a0100005b8100005e0100005401000082
:101390005181000073810000760100007c01000093
:1013a00079810000680100006d8100006781000004
:1013b0006201000023810000260100002c010000d2
:1013c00029810000380100003d81000037810000c4
:1013d0003201000010010000158100001f81000093
:1013e0001a0100000b8100000e0100000401000042
:1013f0000181000003830000060300000c030000cd
:1014000009830000180300001d83000017830000fb
:101410001203000030030000358300003f8300000a
:101420003a0300002b8300002e0300002403000079
:101430002183000060030000658300006f830000cb
:101440006a0300007b8300007e0300007403000039
:101450007183000053830000560300005c0300000a
:1014600059830000480300004d83000047830000bb
:1014700042030000c0030000c5830000cf830000ca
:10148000ca030000db830000de030000d403000079
:10149000d1830000f3830000f6030000fc0300008a
:1014a000f9830000e8030000ed830000e7830000fb
:1014b000e2030000a3830000a6030000ac030000c9
:1014c000a9830000b8030000bd830000b7830000bb
:1014d000b203000090030000958300009f8300008a
:1014e0009a0300008b8300008e0300008403000039
:1014f0008183000080020000858200008f8200004e
:101500008a0200009b8200009e02000094020000fc
:1015100091820000b3820000b6020000bc0200000d
:10152000b9820000a8020000ad820000a78200007e
:10153000a2020000e3820000e6020000ec020000cc
:10154000e9820000f8020000fd820000f78200003e
:10155000f2020000d0020000d5820000df8200000d
:10156000da020000cb820000ce020000c4020000bc
:10157000c182000043820000460200004c020000cd
:1015800049820000580200005d820000578200007e
:101590005202000070020000758200007f8200008d
:1015a0007a0200006b8200006e02000064020000fc
:1015b0006182000020020000258200002f820000ce
:1015c0002a0200003b8200003e02000034020000bc
:1015d0003182000013820000160200001c0200008d
:1015e00019820000080200000d820000078200003e
:1015f000020200000a0000001500000000000000c8
:101600000c000000fdff0000333d00000000000062
:10161000344300000000000034c30000000000005c
:1016200000000000000000000700000000000000b3
:101630000d00000000000000803c000000000000e1
:10164000004300000000000000c300000000000094
:1016500000000000000000005b000000000000002f
:101660000c00000004000000803a000000000000b0
:10167000000000000000000000000000000000006a
:101680000f00000019000000db0000000000000057
:101690000c00000004000000803a00000000000080
:1016a000000000000000000000000000000000003a
:1016b0000f000000190000000b00000000000000f7
:1016c0000c000000acff0000333d000000000000f3
:1016d000344300000000000034c30000000000009c
:1016e00000000000000000002b00000000000000cf
:1016f0000d00000000000000343c0000000000006d
:10170000b442000000000000b4c20000000000006d
:101710000000000000000000ab000000000000001e
:101720000c00000000000000343d0000000000003c
:10173000344300000000000034c30000000000003b
:101740000000000000000000db00000000000000be
:101750000c00000004000000803a000000000000bf
:10176000a04000000000000040c000000000000099
:101770000000000000000000b900000001000000af
:10178000130500006f120000833a00000000000003
:101790000000000000000000000000000000000049
:1017a0000000000000000000300000008500000084
:1017b000860000008100000082000000510000004f
:1017c000310000008500000086000000810000005c
:1017d00082000000050000003200000081000000cf
:1017e0008200000085000000860000001500000057
:1017f0002000000000a50000a5a5000000a5000035
:10180000a5a50000ff5a00005ada000050c30000ee
:101810000000000032000000000000000100000095
:1018200002000000121600001700000001ff000077
:10183000f2a50000b20000000700000070000000e8
:101840000700000070000000400000001800fa00cf
:10185000881f7800100f9800220f9800330f98000f
:101860001e0890002e099000be09900042089800c2
:10187000530898001e089000404090000080fb0034
:101880007c0110002e089000be08900082017800b4
:101890008301e900030033008100d1000080d30000
:1018a000fbff370010079800210798001e089000e2
:1018b000404090000080fb007f0110000080eb00a2
:1018c0008080eb00820178008301e900030033008f
:1018d0008100d1000080d300fbff37001e01900083
:1018e000ae019000020278000301780080017800c8
:1018f0000100780003026200000061008000eb003c
:10190000c000dd00000020000001be006120b80022
:10191000000171008181710012079800230798006f
:101920001e08900030019000c00190001e08900039
:1019300040409000ee0047001e029000ae02900072
:10194000bc2007000001be001000200001002000a4
:10195000800f5100818f590004003a002008a80030
:10196000c0ff2f00000f7800a50037007e00900018
:101970008e0890001e0990007009980001119800cf
:101980007e0090008e08900018c0b3006011b8006f
:1019900070fb07000000e000020035002028a800ce
:1019a0000044eb000804e000070032002048a800d3
:1019b0007e0090008e0890000200200003f02300bb
:1019c0001efc0700060037002068a8007e0090007b
:1019d0008e0890000200200003f0230018fc07008e
:1019e000300798004107980018c0b300020020009b
:1019f00003f024003e009000ce00900057fb07004b
:101a00000000e00002003c002088a8000044eb0039
:101a10000804e0000400320020a8a8000000200014
:101a200001f024001400370018c0b30002002000a9
:101a300003f02c003e009000ce00900045fb070014
:101a40000000e0000200350020c8a8000044eb00c0
:101a50000804e0000400320020e8a8000000200094
:101a600001f02c00030037002108a8003e00900080
:101a7000ce0090002128a800300798004107980068
:101a80003e009000ce00900036fb07001e0990003b
:101a900010119800211198001e089000205090000d
:101aa0000004e0002d0032002148a8002e0890001c
:101ab000be0890004609dd004a00de00000071000b
:101ac000ca08de0050079800610798001e089000c1
:101ad000205090000080fb00010220000081500097
:101ae0000080eb008080eb00820178008301e90038
:101af000030033008100d1000080d300fbff3700da
:101b00005e019000ee01900002027800030178006f
:101b1000800178000100780003026200000061008b
:101b20008000eb00c000dd00000020000001be00ce
:101b30006120b80000017100818171005207980096
:101b4000630798001e0890005e019000ee0190006f
:101b50003210980043109800050037002168a80053
:101b60001e0990006000b8003011980041119800e3
:101b70002e089000be08900088200700e340600017
:101b80001e0890008180fb00e3806000e009900067
:101b9000c2ff2f00028161008280700061089800fe
:101ba0001e08900040409000f24f500006003e009a
:101bb0002188a8002e089000be0890006b20070026
:101bc000e34060000200370021a8a8008040eb003d
:101bd00021c8a8001e0890008180fb00e3806000ff
:101be000c208dd00e009900032ff2f000281610091
:101bf00082807000610898000000eb00000f780000
:101c000021e8a8001e0078004f0478000080fa0048
:101c1000000006001600fa00881f7800000f9800e8
:101c2000120f9800230f98000e089000504090006b
:101c30000004e000110032002208a8000e08900005
:101c400050409000e54f50000c003e002228a800b4
:101c50000e089000504090000080fb004200dd0024
:101c60008000e9000e089000205090000080fb00ea
:101c700000804000f30f50000300340023e8a80068
:101c8000b0ff2f00ca0037001e099000ae09900077
:101c900000c02f00f1ff21000202780083017800cc
:101ca00000017800010078000201620000806100fc
:101cb0008000eb00c000dd0000002000008fbe00af
:101cc0006110b8001e1f70001e9770000e08900073
:101cd000504090000080fb00650010004200dd00d5
:101ce0006a0140001e00be00820178008301e90005
:101cf000030033008100d1000080d300fbff3700d8
:101d0000008fbe000e08900030019000c0019000ce
:101d10000e089000504090000080fb00ec0047004f
:101d20001e02be00262007000001be001000200099
:101d300001002000800f5100818f590003003a00fc
:101d40002248a800b0ff2f00990037006e009000d5
:101d5000fe0090000e099000700998000111980093
:101d60006e009000fe00900018c0b3006011b80033
:101d700078fa07000000e000020035002268a800a1
:101d80000044eb000804e000040032002288a800b0
:101d90000000200001f02b000300370022a8a8005b
:101da0000000200001f023006e019000fe01900071
:101db00023fb0700200798003107980018c0b300e4
:101dc0000200200003f024002e009000be009000ce
:101dd00062fa07000000e00002003c0022c8a800f0
:101de0000044eb000804e0000400320022e8a800f0
:101df0000000200001f024001400370018c0b300d8
:101e00000200200003f02c002e009000be00900085
:101e100050fa07000000e000020035002308a80087
:101e20000044eb000804e000040032002328a8006e
:101e30000000200001f02c00030037002348a80018
:101e40002e009000be0090002368a8002007980094
:101e5000310798002e009000be00900041fa070064
:101e60000e09900010119800211198000e089000a2
:101e7000205090000004e0002d0032002388a800cc
:101e80001e089000ae0890004609dd004a00de0002
:101e900000007100ca08de00400798005107980052
:101ea0000e089000205090000080fb0001022000ee
:101eb000008150000080eb008080eb008201780000
:101ec0008301e900030033008100d1000080d300ca
:101ed000fbff37004e019000de0190000202780007
:101ee000030178008001780001007800030262009d
:101ef000000061008000eb00c000dd000000200059
:101f00000001be006120b8000001710081817100f4
:101f100042079800530798000e0890004e01900069
:101f2000de01900032109800431098000500370041
:101f300023a8a8000e0990006000b8003011980096
:101f40004111980023c8a8001e089000ae08900018
:101f5000921f0700e34060000e0890008180fb00a4
:101f6000e3806000e0099000c2ff2f000281610061
:101f700082807000610898001e089000ae089000f2
:101f80007a1f0700e34060000e0890008180fb008c
:101f9000e3806000c208dd00e009900032ff2f00fe
:101fa0000281610082807000610898000000eb00ef
:101fb0002408a8004f0478000080fa000000060002
:101fc0000a00fa002007980032079800430798009b
:101fd0002e009000205090000004e0000500320028
:101fe0002428a8002e00900020509000f34f5000ad
:101ff000030036002468a800c0ff2f004f00370000
:102000002448a8002e0190006000b80070099800d4
:10201000011198002e0190006000b8001011980086
:10202000211198002e0090008040eb00616898001c
:102030003e009000ce0090004609dd004a00de0020
:1020400000007100ca08de00008fbe002e00900064
:10205000205090000080fb00010220000081500011
:102060000080eb008080eb000002be0002037800dd
:102070000603e900030033008502d1000482d30087
:10208000fbff37000401be001e00be000202780004
:1020900003017800800178000100780003026200eb
:1020a000000061008000eb00c000dd0000002000a7
:1020b0000001be006120b800000171008181710043
:1020c000028fbe002e0090001e01be00321098004c
:1020d000431098003e009000ce0090002f1f070094
:1020e000e34060002e0090008180fb00e3806000f0
:1020f000e0099000c2ff2f00028161008280700021
:10210000610898003e009000ce009000171f070065
:10211000e34060002e0090008180fb00e3806000bf
:10212000c208dd00e009900032ff2f00028161004b
:1021300082807000610898000000eb002488a800ed
:102140000080fa00000006000c00fa00300798003a
:1021500041079800520798005e0090000000e000e0
:1021600003003a0024a8a8000040eb001300370049
:102170005e009000e0109000501090003e01900032
:10218000ce019000001f5100019759005e009000a1
:10219000300890008000eb0012c0b300be0f50006a
:1021a000ae8f58000200310024c8a8000041eb00a7
:1021b00024e8a800424798004e4090002508a80057
:1021c0000080fa00000006000c00fa0030079800ba
:1021d00041079800520798005e009000e0109000c0
:1021e000501090003e019000ce019000001f510061
:1021f000019759005e009000200890008000eb00dd
:1022000012c0b300be0f5000ae8f5800020036005f
:102210002528a8000041eb002548a8004247980067
:102220004e4090000080fa00000006001200fa0004
:102230006007980072079800030f98006e009000e6
:102240000000e000050032002568a8006e00900044
:10225000100090000000e00003003a0026e8a8000b
:10226000c0ff2f007a0037007e0090005047980092
:102270000000eb00000f78000000eb001007980052
:102280000040eb0040479800590037006e00900076
:10229000100190009e009000200320000088b900eb
:1022a0000000780000004100904078005e409000ff
:1022b00080cf50004a003a006e009000100190005c
:1022c0009e009000200320000088b90000007800e4
:1022d00000004100300798003e0090001000900080
:1022e000e10f50000c003200e10f500003003900f4
:1022f000e20f5000140032001f0037002608a8002b
:102300007e0190008e0990003e0090004ffd070076
:10231000000f78001c0037002628a8003e0090001f
:102320007e0190008e0990004208980053089800a2
:102330007e0190008e0990003e00900035fe07005f
:10234000000f78001000370025e8a8003e0090003c
:102350007e0190008e099000420898005308980072
:102360007e0190008e0990003e00900014ff07004f
:10237000000f780004003700c0ff2f00000f780026
:1023800025c8a800000000001e0078000000e00042
:102390000f003a002648a800de27070040079800f3
:1023a000510798003e0190004e009000de00900022
:1023b00085ff0700be009000f06898003e00900086
:1023c0004e019000de0190005210980063109800ba
:1023d0002668a80010c0b3004047980004003700ea
:1023e0002688a8001e0090000000e8001007980052
:1023f0006e009000900078001e009000808f5000ca
:102400000a0036002588a800206184009e00900004
:10241000808f50000500310025a8a8004e40900094
:102420000004a2000004e00098ff3a004e40900033
:102430000004a2000004e0000300320026a8a80067
:10244000a0ff2f00000f780026c8a8001e0078000b
:102450002708a8000080fa00000006001c00fa000f
:10246000400f9800510f98004e089000100078001f
:102470000000e000040032002728a8005e08900059
:102480000000e00003003a0028a8a800a0ff2f00e9
:10249000ff0037006000b800100f9800210f98006f
:1024a0000040eb00605798004e089000300290000a
:1024b000c00290004e08900010007800300190009b
:1024c000c00190004e08900010007800404090003d
:1024d0000080fb0076034700f2004700f81c07006d
:1024e0000001be001000200001002000800f5100fc
:1024f000818f590004003a002748a800d0ff2f0020
:10250000000f7800e00037006e5090000004e000fb
:10251000030032002768a8000080eb0002003700ab
:102520002788a8000000eb00000f78001e0890002c
:10253000ae0890004e0990001201780042419000d0
:102540000281fb007c011100820178008301e90017
:10255000030033000000400081804800fbff37008b
:1025600010079800210798004e089000100078008e
:1025700040409000f44f500015003a0027a8a800f2
:102580001e019000ae01900000f02f00f1ff21002d
:1025900002027800030178008001780001007800d1
:1025a00003026200000061008000eb00c000dd005b
:1025b000000020000001be006120b8000001710091
:1025c0008181710012079800230798002e003700c0
:1025d0004e0890001000780040409000f34f5000eb
:1025e00015003a0027c8a8001e019000ae01900017
:1025f00000e02f00f1ff21000202780003017800c3
:102600008001780001007800030262000000610090
:102610008000eb00c000dd00000020000001be00d3
:102620006120b800000171008181710012079800db
:10263000230798001400370027e8a8001e01900027
:10264000ae01900000c02f00f1ff210002027800cf
:102650000301780080017800010078000302620025
:10266000000061008000eb00c000dd0000002000e1
:102670000001be006120b80000017100818171007d
:1026800012079800230798004e0890001000780069
:10269000205090000004e0002e0032002808a8001e
:1026a0004e08900050019000e001900072079800e1
:1026b000030f98004e089000100078002050900002
:1026c0000080fb0001022000008150000080eb0030
:1026d0008080eb00820178008301e9000300330071
:1026e0008100d1000080d300fbff37007e01900005
:1026f0008e099000020278000301780080017800c2
:102700000100780003026200000061008000eb001d
:10271000c000dd00000020000001be006120b80004
:10272000000171008181710072079800030f980009
:102730007e0190008e0990004a18dd00c610de0070
:10274000810070004a10dd003007980041079800b2
:10275000040037002828a8006000b800300798005f
:10276000410798004e089000100078001040780053
:102770000080fb008000eb00500798006107980084
:102780005e019000ee0190001e009000ae009000ef
:102790000000710081807100500798006107980067
:1027a0005e019000ee0190003e009000ce0090008f
:1027b0000000710081807100500798006107980047
:1027c0004e0890001000780040409000f24f5000fa
:1027d0000e003e002848a8004e08900020009000ff
:1027e000634060000080fb00630060004800dd0083
:1027f000cf80de005e019000ee01900000007100cd
:102800008180710050079800610798002868a8002f
:102810004e089000100090006101b80030002000c8
:102820000100200002027800030178008001780096
:102830000100780003026200000061008000eb00ec
:10284000c000dd00000020000001be006120b800d3
:102850000001710081817100cd10dd0000002000b9
:102860005e019000ee019000000071008180710017
:1028700050079800610798005e0890005e01900084
:10288000ee0190000288be002888a8001e00780093
:1028900028c8a8000080fa00000006001000fa0016
:1028a00060079800710798006e0090000000e0003b
:1028b0000900320028e8a8006e009000100078009f
:1028c0000000e000040032002908a8007e0090000b
:1028d0000000e00003003a002988a800a0ff2f00b4
:1028e0007b0037006e0090001000780020509000b0
:1028f0000004e000060032002928a8006e009000c5
:102900001000780020509000f34f50000300360074
:102910002968a800c0ff2f006d0037002948a800d3
:102920006e00900050019000e0019000028fbe0008
:102930006e00900010007800205090000080fb0096
:1029400001022000008150000080eb008080eb003d
:102950000002be00020378000603e9000300330012
:102960008502d1000482d300fbff37000401be00c2
:102970001e00be000202780003017800800178008a
:102980000100780003026200000061008000eb009b
:10299000c000dd00000020000001be006120b80082
:1029a0000001710081817100028fbe006e009000f5
:1029b00010007800205090000080fb007d01100086
:1029c0001e00be00820178008301e900030033008d
:1029d0000000400081804800fbff3700200798007e
:1029e000310798006e0090001000780010407800c9
:1029f0000080fb008000eb00400798005107980022
:102a00004e019000de0190002e009000be0090006c
:102a10000000710081807100400798005107980004
:102a20006e00900020009000634060000080fb007a
:102a3000630060004800dd00cf80de004e019000a2
:102a4000de01900000007100818071004007980055
:102a5000510798006e009000100090006101b800ce
:102a600030002000010020000202780003017800fd
:102a7000800178000100780003026200000061001c
:102a80008000eb00c000dd00000020000001be005f
:102a90006120b8000001710081817100cd10dd005e
:102aa000000020004e019000de0190000000710047
:102ab0008180710040079800510798007e009000c7
:102ac0004e029000de0290000488be000000eb0081
:102ad00029a8a8000080fa00000006001c00fa00e7
:102ae000881f7800400f9800510f98004e08900002
:102af0000000e0000900320029c8a8004e0890003c
:102b0000100078000000e0000400320029e8a8006e
:102b10005e0890000000e00003003a002b68a80067
:102b2000a0ff2f00f10037004e0890001000780041
:102b3000504090000004e000140032002a08a80071
:102b40004e0890001000780050409000e54f500073
:102b50000e003e002a28a8004e08900010007800c1
:102b6000504090000080fb004200dd008000e90042
:102b70004e08900010007800205090000080fb006c
:102b800000804000f30f5000030034002b48a800e1
:102b9000c0ff2f00d50037004e089000c000900005
:102ba0003000900018c0b3006011b800e9f60700cb
:102bb0000000e000020035002a48a8000044eb00b5
:102bc0000804e000030032002a68a800b0ff2f00cc
:102bd000c60037006000b800100f9800210f980061
:102be0000040eb00605798004e089000c000900035
:102bf000300090004e09900012017800c201900050
:102c0000320190004e0a9000140278005442900065
:102c10000484fb0076024700f20247008403780038
:102c2000050378000002be00310020000800780093
:102c3000fe1c07000001be00100020000100200063
:102c4000800f5100818f590003003a002a88a800a4
:102c5000d0ff2f00a50037006e5090000004e00068
:102c6000030032002aa8a8000080eb000200370011
:102c70002ac8a8000000eb00200798001e0890005a
:102c8000ae0890004e099000120178005241900069
:102c90000281fb00650111004211dd006a01410063
:102ca000820178008301e900030033000000400046
:102cb00081804800fbff37003007980041079800eb
:102cc0003e019000ce01900000c02f00f1ff2100d6
:102cd000020278000301780080017800010078008a
:102ce00003026200000061008000eb00c000dd0014
:102cf000000020000001be006120b800000171004a
:102d00008181710032079800430798004e089000b7
:102d100010007800205090000004e0002d003200e8
:102d20002ae8a8004e08900050019000e0019000b1
:102d300052079800630798004e0890001000780032
:102d4000205090000080fb00010220000081500014
:102d50000080eb008080eb00820178008301e900b5
:102d6000030033008100d1000080d300fbff370057
:102d70005e019000ee0190000202780003017800ed
:102d80008001780001007800030262000000610009
:102d90008000eb00c000dd00000020000001be004c
:102da0006120b80000017100818171005207980014
:102db000630798005e019000ee0190004a18dd0064
:102dc000c610de00810070004a10dd00008fbe00da
:102dd000030037002b08a8006000b800008fbe0079
:102de0002b28a8004e0890001000780010407800b2
:102df0000080fb008000eb0070079800010f980036
:102e00007e0190008e0990003e009000ce00900060
:102e1000000071008180710070079800010f980018
:102e20007e0090008e0890003e017000ae81700020
:102e30000200be0070079800010f98004e08900035
:102e400020009000634060000080fb006300600091
:102e50004800dd00cf80de007e0190008e099000ea
:102e6000000071008180710070079800010f9800c8
:102e70004e089000100090006101b8003000200062
:102e80000100200002027800030178008001780030
:102e90000100780003026200000061008000eb0086
:102ea000c000dd00000020000001be006120b8006d
:102eb0000001710081817100cd10dd000000200053
:102ec0007e0190008e0990000000710081807100e9
:102ed00070079800010f98005e0890007e01900036
:102ee0008e0990000288be002e0090002b88a8005a
:102ef0004f0478000080fa00000006000600fa0087
:102f0000881f7800008fbe00220798002e009000d6
:102f1000800890007000900018c0b3001e01be0031
:102f20000ef607000000e00002003c002ba8a800fd
:102f30000044eb000804e0000d003a002e00900071
:102f4000e00090005000900018c0b3001e01be00c9
:102f500000f607000000e000020035002bc8a800c2
:102f60000044eb002be8a8000804e0000300320056
:102f70002c28a8000000eb00020037002c08a80055
:102f8000300020002c48a8004f0478000080fa0090
:102f9000000006001000fa00500798006107980032
:102fa000720798005e0090000000e000040032000c
:102fb0002c68a8007e0090000000e00004003a00a9
:102fc0002d28a800b0ff2f00000f7800490037001f
:102fd0000000eb00100798000040eb00404798000d
:102fe000320037005e009000100190009e009000bb
:102ff000200320000088b900000078000000410094
:10300000104078008080fb006e009000808f5000a0
:1030100022003a002ca8a80010c0b3004047980036
:103020005e009000100190009e00900020032000a0
:103030000088b90000007800800041007e00900008
:10304000788140000c00090032187800a001b1001e
:10305000b024070030079800410798005e009000f8
:10306000100190009e009000200320000088b9000d
:103070000000780000004100000178003e00900050
:10308000ce00900030fc0700fe00900080589800b1
:103090000000eb00000f78000e0037002cc8a800dd
:1030a0001e0090000000e800100798005e009000ed
:1030b000900078001e009000808f500005003600c0
:1030c0002c88a800206184009e009000808f500012
:1030d000c4ff39002ce8a8004e4090000004a20074
:1030e0000004e000030032002d08a800d0ff2f00ec
:1030f000000f78002d48a8001e0078000080fa001c
:10310000000006002200fa00600f9800710f98007e
:10311000021798006e0890000000e0000d003200d9
:103120002d68a8007e0890000000e0000900320031
:103130002d88a800fe08900090172000808f500076
:1031400004003e002da8a8000e1090000000e00032
:1031500003003a002e48a8000040eb002b01370086
:103160007e089000c200de00b04721000008b800d1
:103170000100d1004601dd00fe089000d0cc2c00fb
:103180000008b800c309de007e089000c200de001f
:10319000b04721000008b8000100d1006a00b90062
:1031a00000007800008051004300dd0082017000c3
:1031b0007e099000d0cc2c000010b8004308de003f
:1031c0006a00b90000007800000051008300700020
:1031d000000f200000806000c401de007e08900027
:1031e000c200de00b04721000008b8000100d10095
:1031f0004601dd00fe089000d0cc2c000008b8008d
:10320000430ade007e089000c200de00b0472100c5
:103210000008b8000100d1006a00b9000000780081
:10322000000052004300dd00020270007e099000a1
:10323000d0cc2c000010b8004308de006a00b900b2
:10324000000078000000510004007000c400dd00a0
:10325000f00f20000080600083007000c00c200090
:1032600000806000c201de007e089000c200de0027
:10327000b04721000008b8000100d1004601dd0080
:10328000fe089000d0cc2c000008b800430ade00f5
:103290007e089000c200de00b04721000008b800a0
:1032a0000100d1006a00b90000007800000052005f
:1032b0004300dd00020270007e099000d0cc2c009b
:1032c0000010b8004308de006a00b9000000780072
:1032d0000000510084007000000f2000008060009a
:1032e0004402de007e089000c200de00b0472100ec
:1032f0000008b8000100d1004601dd00fe08900082
:10330000d0cc2c000008b800c30ade007e08900074
:10331000c200de00b04721000008b8000100d10063
:103320006a00b90000007800008052004300dd0010
:10333000820270007e099000d0cc2c000010b800f2
:103340004308de006a00b900000078000000510068
:1033500005007000c400dd00f00f20000080600058
:103360008400700030032000008060004200dd0017
:1033700083007000a00a2000008060008001d1005e
:103380007e089000c200de00b04721000008b800af
:103390000100d1004601dd00fe089000d0cc2c00d9
:1033a0000008b800430ade007e089000c200de007c
:1033b000b04721000008b8000100d1006a00b90040
:1033c00000007800000052004300dd00020270009f
:1033d0007e099000d0cc2c000010b8004308de001d
:1033e0006a00b900000078000000510084007000fd
:1033f000000f2000008060004402de007e08900084
:10340000c200de00b04721000008b8000100d10072
:103410004601dd00fe089000d0cc2c000008b8006a
:10342000c30ade007e089000c200de00b047210023
:103430000008b8000100d1006a00b900000078005f
:10344000008052004300dd00820270007e0990007f
:10345000d0cc2c000010b8004308de006a00b90090
:10346000000078000000510005007000c400dd007d
:10347000f00f20000080600084007000c00c20006d
:10348000008060004202de007e089000c200de0084
:10349000b04721000008b8000100d1004601dd005e
:1034a000fe089000d0cc2c000008b800c30ade0053
:1034b0007e089000c200de00b04721000008b8007e
:1034c0000100d1006a00b9000000780000805200bd
:1034d0004300dd00820270007e099000d0cc2c00f9
:1034e0000010b8004308de006a00b9000000780050
:1034f0000000510085007000000f20000080600077
:10350000c402de007e089000c200de00b047210049
:103510000008b8000100d1004601dd00fe0890005f
:10352000d0cc2c000008b800430bde007e089000d1
:10353000c200de00b04721000008b8000100d10041
:103540006a00b90000007800000053004300dd006d
:10355000020370007e099000d0cc2c000010b8004f
:103560004308de006a00b900000078000000510046
:1035700006007000c400dd00f00f20000080600035
:103580008500700030032000008060004200dd00f4
:1035900084007000500520000080600000004000a2
:1035a000030070008e80e800010178008000780040
:1035b0006e08900077fe0700000f78001e0078006c
:1035c0000000e0000f003a002dc8a8002e5890001f
:1035d0000004e0000b0032002de8a8001e58900007
:1035e0000004e000070032002e08a8001e00900032
:1035f000ae0090000e1190000089be0010c0b30014
:10360000020037002e28a8000040eb002e68a8001a
:103610000080fa00000006000000fa005c08a80024
:10362000c7c2a900cbc2a900e462a900e862a80051
:10363000e442a900e842a800c1c2a900c5c2a8008e
:10364000c1e2a900c5e2a800d302a900d702a800e0
:10365000d322a900d722a800d342a900d742a800ac
:10366000d3e2a800d242a800d3a2a80010002000f4
:103670001b0007000080fa00000006000000fa00ae
:103680005c28a800d362a900d762a900d262a90071
:10369000d662a800d382a900d782a800de02a900c2
:1036a000e202a800de22a900e222a800e422a9008a
:1036b000e822a800e402a900e802a800e5c2a900e7
:1036c000e9c2a800d282a800d2c2a800c0e2a80025
:1036d00010002000020007000080fa000000060031
:1036e0000400fa005c48a800100798001e00900033
:1036f000800078000100a200010f78001e00780011
:1037000000f0a7000000ea00000fe9001e007800aa
:103710004f00de00000f78001e00780000407800a7
:10372000614060000080fb0061006000000040001c
:10373000611680000110a100010070006016880071
:103740001e00780000407800614060000080fb00af
:10375000610060004200dd00611680000120a100d0
:1037600001007000601688001e007800004078009c
:10377000614060000080fb00610060004300dd00ec
:10378000611680000130a100010070006016880001
:103790001e00780000407800614060000080fb005f
:1037a000610060004400dd00611680000140a1005e
:1037b00001007000601688001e007800004078004c
:1037c000614060000080fb00610060004c00dd0093
:1037d0000116800001c0a1000100700000168800e1
:1037e0001e00780000407800614060000080fb000f
:1037f000610060004d00dd000116800001d0a100d5
:1038000001007000001688001e007800004078005b
:10381000614060000080fb00610060004600dd0048
:10382000311680000160a100010070003016880090
:103830001e00780000407800614060000080fb00be
:10384000610060004700dd00311680000170a100ba
:1038500001007000301688001e00780000407800db
:10386000614060000080fb00610060004900dd00f5
:10387000011680000190a100010070000016880070
:103880001e00780000407800614060000080fb006e
:10389000610060004a00dd000116800001a0a10067
:1038a00001007000001688001e00780000407800bb
:1038b000614060000080fb00610060004800dd00a6
:1038c000311680000180a1000100700030168800d0
:1038d0001e00780000407800614060000080fb001e
:1038e000610060004900dd00311680000190a100f8
:1038f00001007000301688001e007800004078003b
:10390000614060000080fb00610060004a00dd0053
:103910003116800001a0a10001007000301688005f
:103920001e00780000407800614060000080fb00cd
:10393000610060004b00dd003116800001b0a10085
:1039400001007000301688001e00780000407800ea
:10395000614060000080fb00610060004c00dd0001
:103960003116800001c0a1000100700030168800ef
:103970001e00780000407800614060000080fb007d
:10398000610060004d00dd003116800001d0a10013
:1039900001007000301688000080fa000000060068
:1039a0000200fa005c68a800000f78001e00780092
:1039b000004078006140600061406000614060004c
:1039c0000080fb0061006000000040008116800064
:1039d0000110a10001007000801688001e00780010
:1039e0000000d1000040780061406000614060004c
:1039f000614060000080fb00610060004200dd006b
:103a0000811680000120a10001007000801688004e
:103a10001e0078004200de00004078006140600037
:103a200061406000614060000080fb006100600058
:103a30004300dd00811680000130a100010070000c
:103a4000801688001e0078004300de0000407800e9
:103a50006140600061406000614060000080fb00e8
:103a6000610060004400dd00811680000140a1007b
:103a700001007000801688001e0078004400de00ff
:103a8000004078006140600061406000614060007b
:103a90000080fb00610060004c00dd00211680000a
:103aa00001c0a10001007000201688001e007800ef
:103ab0004500de0000407800614060006140600029
:103ac000614060000080fb00610060004d00dd008f
:103ad0002116800001d0a10001007000201688008e
:103ae0001e0078004600de00004078006140600063
:103af00061406000614060000080fb006100600088
:103b00004600dd00511680000160a1000100700038
:103b1000501688001e0078004700de000040780044
:103b20006140600061406000614060000080fb0017
:103b3000610060004700dd00511680000170a100a7
:103b400001007000501688001e0078004800de005a
:103b500000407800614060006140600061406000aa
:103b60000080fb00610060004900dd00211680003c
:103b70000190a10001007000201688001e0078004e
:103b80004900de0000407800614060006140600054
:103b9000614060000080fb00610060004a00dd00c1
:103ba0002116800001a0a1000100700020168800ed
:103bb0001e0078004a00de0000407800614060008e
:103bc00061406000614060000080fb0061006000b7
:103bd0004800dd00511680000180a1000100700046
:103be000501688001e0078004b00de000040780070
:103bf0006140600061406000614060000080fb0047
:103c0000610060004900dd00511680000190a100b4
:103c100001007000501688001e0078004c00de0085
:103c200000407800614060006140600061406000d9
:103c30000080fb00610060004a00dd00511680003a
:103c400001a0a10001007000501688001e0078003d
:103c50004d00de000040780061406000614060007f
:103c6000614060000080fb00610060004b00dd00ef
:103c70005116800001b0a1000100700050168800ac
:103c80001e0078004e00de000040780061406000b9
:103c900061406000614060000080fb0061006000e6
:103ca0004c00dd005116800001c0a1000100700031
:103cb000501688001e0078004f00de00004078009b
:103cc000614060000080fb00610060004d00dd008d
:103cd0005116800001d0a10001007000501688002c
:103ce0000080fa00000006000200fa005c88a800cc
:103cf000401680004d00de00614060000080fb0047
:103d0000000f78001e00780000004000800078005e
:103d1000401680004c00de00614060000080fb0027
:103d2000008f70001e0078000000400080007800c6
:103d3000401680004b00de00614060000080fb0008
:103d4000008f70001e0078000000400080007800a6
:103d5000401680004a00de00614060000080fb00e9
:103d6000008f70001e007800000040008000780086
:103d7000401680004900de00614060000080fb00ca
:103d8000008f70001e007800000040008000780066
:103d9000401680004800de00614060000080fb00ab
:103da000008f70001e007800000040008000780046
:103db000101680004a00de00614060000080fb00b9
:103dc000008f70001e007800000040008000780026
:103dd000101680004900de00614060000080fb009a
:103de000008f70001e007800000040008000780006
:103df000401680004700de00614060000080fb004c
:103e0000008f70001e0078000000400080007800e5
:103e1000401680004600de00614060000080fb002c
:103e2000008f70001e0078000000400080007800c5
:103e3000101680004d00de00614060000080fb0035
:103e4000008f70001e0078000000400080007800a5
:103e5000101680004c00de00614060000080fb0016
:103e6000008f70001e007800000040008000780085
:103e7000701680004400de00614060000080fb009e
:103e8000008f70001e007800000040008000780065
:103e9000701680004300de00614060000080fb007f
:103ea000008f70001e007800000040008000780045
:103eb000701680004200de00614060000080fb0060
:103ec000008f70001e007800000040008000780025
:103ed000701680000000d100614060000080fb008f
:103ee000008f70001e0078000080fa0000000600bd
:103ef0000400fa005ca8a80010002000f8fd0700ec
:103f0000e862a800e842a800cbc2a900e862a900c4
:103f100075ff07008000eb00008fbe00e862a8007c
:103f2000cbc2a800e862a9006fff07008000eb0089
:103f3000c000dd00000020001e1f70001e977000f2
:103f4000e862a8001e00be000080fa000000060023
:103f50000400fa005cc8a80010002000e0fd070083
:103f6000e862a800e842a800cbc2a900e842a90084
:103f70005dff07008000eb00008fbe00e842a80054
:103f8000cbc2a800e842a90057ff07008000eb0061
:103f9000c000dd00000020001e1f70001e97700092
:103fa000e842a8001e00be000080fa0000000600e3
:103fb0000400fa005ce8a800008fbe000000eb00df
:103fc000c7fd07001e00780075fe0700c5c2a900e6
:103fd00000000000c5c2a8001e00be004008de00b0
:103fe000000078006efe0700c5e2a9000000000096
:103ff000c5e2a80010002000b9fd07000080fa000b
:10400000000006000400fa005d08a80010079800f0
:10401000cbc2a900d722a9000000eb00b0fd070029
:104020001e0090005efe0700d722a8000a000700cd
:10403000000f78001e0090001e00680000f0a7002e
:104040000000ea000000e9004f00de0000407800b8
:104050000080fa00000006000200fa005d28a800b7
:10406000100020009efd0700cbc2a800d742a90087
:104070001dff0700000f7800d742a800cbc2a9009f
:104080001e0078000080fa00000006000400fa001c
:104090005d48a8001000200091fd0700d662a8002e
:1040a000d782a800d762a900d662a9000eff070038
:1040b0008000eb00008fbe00d662a800d762a80087
:1040c000d662a90008ff07008000eb00c000dd00f9
:1040d000000020001e1f70001e977000d662a8000e
:1040e0001e00be000080fa00000006000400fa0076
:1040f0005d68a8001000200079fd0700d662a800c6
:10410000d782a800d762a900d782a900f6fe0700cf
:104110008000eb00008fbe00d782a800d762a80005
:10412000d782a900f0fe07008000eb00c000dd0090
:10413000000020001e1f70001e977000d782a8008c
:104140001e00be000080fa00000006000400fa0015
:104150005d88a800008fbe000000eb0060fd070036
:104160001e0078000efe0700e202a9000000000019
:10417000e202a8001e00be004008de000000780039
:1041800007fe0700e222a90000000000e222a800ca
:104190001000200052fd07000080fa000000060019
:1041a0000400fa005da8a80010079800d762a900d3
:1041b000e802a9000000eb0049fd07001e00900086
:1041c000f7fd0700e802a8000a000700000f7800ca
:1041d0001e0090001e00680000f0a7000000ea002a
:1041e0000000e9004f00de00004078000080fa0087
:1041f000000006000200fa005dc8a80010002000c0
:1042000037fd0700d762a800e9c2a900b6fe070083
:10421000000f7800e9c2a800d762a9001e0078004c
:104220000080fa00000006001400fa008aff070070
:10423000000f98000000280072ff07002057980028
:104240000000eb00000f7800030037005de8a800d5
:1042500027ff07001e0fe800c05f84009e00780063
:10426000808f5000f9ff36000000eb00000f78004f
:10427000030037005e08a80035ff07001e0fe800a6
:10428000c05f84009e007800808f5000f9ff3600e8
:104290000000eb0010079800f25f840003608400c8
:1042a000220798003307980012608400236084007e
:1042b00042079800530798002a003700d05f840017
:1042c000e15f84003aff07006000b80060079800d3
:1042d00071079800070037005e68a8006e00900024
:1042e000fe00900061004000e080480060079800f8
:1042f00071079800a116800000002800008060006f
:104300000000e00005003a005e28a800a01680002a
:10431000640060000000e000080032005e48a80071
:1043200030608400416084006e019000fe019000c6
:10433000800f5100818f5900e7ff39005e88a80087
:10434000ebfe0700200798003107980000ff0700e8
:1043500040079800510798001e0090000000e800f8
:1043600010079800506084009e009000808f5000dd
:1043700013003100f25f8400036084002e0090007f
:10438000be009000800f5100818f590008003a0054
:104390005ea8a80012608400236084004e00900094
:1043a000de009000800f5100818f5900c3ff320062
:1043b0005ec8a8001e009000e10f5000bfff320051
:1043c0002e5090000082fb00f25f840003608400a6
:1043d0002e009000be009000800f5100818f590088
:1043e0000b003a005ee8a80012608400236084009d
:1043f0004e009000de009000800f5100818f590028
:1044000003003a005f08a8001000200002003700f7
:104410005f28a8000000eb005f48a80000006200d1
:1044200000f0a7000000ea000000ea004f00de00f4
:10443000205798000e089000f2fe07002e509000c2
:104440000080fa00000006001600fa0069ff07006d
:10445000100f98000000280051ff070040579800f7
:104460000000eb00000f7800030037005f68a80031
:1044700006ff07001e0fe800c05f84009e00780062
:10448000808f5000f9ff36000000eb00000f78002d
:10449000030037005f88a80014ff07001e0fe80024
:1044a000c05f84009e007800808f5000f9ff3600c6
:1044b0006000b8001007980021079800f25f8400a0
:1044c000036084003207980043079800126084005c
:1044d0002360840052079800630798002d0037007e
:1044e000d05f8400e15f840018ff07006000b8001f
:1044f00070079800010f9800070037005fe8a800d8
:104500007e0090008e08900061004000e08048002e
:1045100070079800010f9800a016800070006000de
:104520000000e00006003a005fa8a800a116800085
:1045300000042000008060000000e000080032005d
:104540005fc8a80030608400416084007e01900054
:104550008e099000800f5100818f5900e7ff3900cc
:104560006008a800c9fe07003007980041079800be
:10457000defe070050079800610798001e009000bb
:10458000ae00900061004000e080480010079800f5
:1045900021079800506084006101b8001e0090005f
:1045a000ae009000800f5100818f59001700360037
:1045b000f25f8400036084003e009000ce00900013
:1045c000800f5100818f590008003a006028a80030
:1045d00012608400236084005e009000ee00900072
:1045e000800f5100818f5900bdff32006048a80044
:1045f0001e019000ae01900010002000010020007c
:10460000800f5100818f5900b5ff32004e5090004d
:104610000082fb00f25f8400036084003e00900093
:10462000ce009000800f5100818f59000b003a009e
:104630006068a80012608400236084005e0090001f
:10464000ee009000800f5100818f590003003a0066
:104650006088a800100020000200370060a8a800b1
:104660000000eb0060c8a8000000620000f0a70096
:104670000000ea000000ea004f00de00405798000a
:104680001e089000c6fe07004e5090000080fa0001
:10469000000006002e00fa00601798006e109000cf
:1046a0000000e0000500320060e8a8006e109000f5
:1046b00010007800f00f5000030036006228a800b8
:1046c0000040eb008e0037000000eb00000f780088
:1046d000100037006108a8006e10900010019000d3
:1046e0009e007800200320000088b90000007800b8
:1046f00000004100104078008080fb001e00780020
:1047000000004000000047006c00400001087800f5
:104710001e0fe8006e109000100078009e0f5000f1
:10472000ecff3e00080037006128a8001e0078005a
:1047300000004000000047006c0040008000eb00db
:10474000010878001e0fe8001e007800ef0f5000ef
:10475000f5ff360040fe07001007980030002000eb
:10476000400798000000eb00200798005000370039
:1047700010c0b30060479800cbc2a8002000200002
:1047800020fe07000000eb00d5fb07000000eb0057
:10479000000f7800120037006148a800c5e2a900a8
:1047a0000000000000000000000000000000000009
:1047b0001e007800000040000000470060009000ec
:1047c00077fc0700c5e2a800000000000000000020
:1047d0000000000000000000000000001e0fe800c4
:1047e0001e007800ef0f5000ebff36001000200095
:1047f000bbfb07000000eb00000f78002200370031
:104800006168a800e842a900000000000000000064
:104810000000000000000000000000000000000098
:1048200031fd0700500798006e4090008080fb002b
:104830001e0078000000400000004700600190006a
:104840005e0090000000690000f0a7000000ea0090
:104850000000e9004f00de000080600000f0a700cb
:104860000000ea000000ea004f00de006047980008
:10487000e842a80000000000000000000000000066
:10488000000000001e0fe8001e007800ef0f50002f
:10489000dbff36006e4090000004e0000a003a00a2
:1048a0006188a8002e0090000000e8002007980012
:1048b000ae0090004e009000808f5000acff390099
:1048c00061c8a8000200370061a8a800000000002d
:1048d0006e4090000004a2000004e00004003200da
:1048e00061e8a8001e0090006800600010079800b2
:1048f0006208a8001e009000c2fd07006e409000f4
:104900006248a8000080fa00000006001e00fa00bd
:10491000600f98006e0890000000e0000500320073
:104920006268a8006e08900010007800f00f500038
:104930000300360063a8a8000040eb0089003700a0
:104940000000eb00000f78000d0037006288a8001f
:104950006e089000100190009e0078002003200057
:104960000088b90000007800000041009040780005
:104970006c0047001e004000014878001e0fe80050
:104980006e089000100078009e0f5000efff3e0070
:104990000600370062a8a8006c0047001e00400017
:1049a0008040eb00014878001e0fe8001e007800f0
:1049b000ef0f5000f7ff36000efe070010079800bb
:1049c00030002000400798000000eb00200798000e
:1049d0005000370010c0b30060479800d762a800ad
:1049e00020002000eefd07000000eb003cfb07006c
:1049f0000000eb00000f78001200370062c8a8002a
:104a0000e222a900000000000000000000000000f9
:104a1000000000006c0047001e00400010407800bd
:104a20000080fb00defb0700e222a800000000007f
:104a30000000000000000000000000000000000076
:104a40001e0fe8001e007800ef0f5000ebff36004d
:104a50001000200022fb07000000eb00000f780090
:104a60002200370062e8a800d782a90000000000f9
:104a70000000000000000000000000000000000036
:104a80000000000098fc0700500798006e4090005e
:104a90008080fb006c0047001e0040001040780042
:104aa0000081fb005e0090000000690000f0a7009c
:104ab0000000ea000000e9004f00de000080600016
:104ac00000f0a7000000ea000000ea004f00de004e
:104ad00060479800d782a800000000000000000096
:104ae00000000000000000001e0fe8001e0078001b
:104af000ef0f5000dbff36006e4090000004e00036
:104b00000a003a006308a8002e0090000000e800a8
:104b100020079800ae0090004e009000808f50005b
:104b2000acff39006348a800020037006328a800e2
:104b3000000000006e4090000004a2000004e000ad
:104b4000040032006368a8001e0090006800600046
:104b5000100798006388a8001e00900090fd0700d1
:104b60006e40900063c8a8000080fa0000000600b4
:104b70000c00fa00881f7800400798005107980041
:104b80006000b8002007980031079800000020005e
:104b900001f82300008fbe00080037004028a8005d
:104ba000b2fd2000930c24004e009000de00900027
:104bb000a3ef0700400798005107980018c0b30002
:104bc0006011b8004e009000de009000e1ee07009a
:104bd0000000e000020035004008a8000044eb009f
:104be0000804e000edff3a00080037004068a80024
:104bf000b2fd2000930c24004e009000de009000d7
:104c00008eef0700400798005107980018c0b300c6
:104c1000b2fd2000930c24004e009000de009000b6
:104c2000ceee07000000e00002003c004048a80073
:104c30000044eb000804e000ecff3a0018c0b300a9
:104c4000b2fd2000930424004e009000de0090008e
:104c5000c2ee07000000e00002003c004088a8000f
:104c60000044eb000804e0000b00320040a8a8005c
:104c7000b2fd2000930424004e009000de0090005e
:104c80006eef0700400798005107980000002000d1
:104c900001f82b00008fbe0018c0b300b2fd200049
:104ca00093fc23004e009000de009000abee070066
:104cb0000000e00002003c0040c8a8000044eb00f7
:104cc0000804e0000f00320040e8a800b2fd200018
:104cd00093fc23004e009000de00900057ef070089
:104ce00040079800510798004e019000de019000a7
:104cf000b0fd200091fc230050ef07004007980012
:104d0000510798004108a800f294290093722b00e3
:104d10004e009000de00900013ef0700b2dd25008a
:104d2000d38a230046ef07004e019000de01900079
:104d30000def070032b72900e39823003fef07008b
:104d40004e019000de01900007ef070092c32200a1
:104d5000739a23003aef07004e019000de019000a5
:104d600001ef070022532700d3a1230033ef0700f0
:104d70004e019000de019000fbee0700e2432b00a5
:104d8000f3c023002eef07004e019000de019000db
:104d9000f5ee0700f2fc2600f394230027ef07004e
:104da0004e019000de019000efee0700c2cd290019
:104db000a3e2230021ef07004e019000de019000e6
:104dc000e9ee0700a2742900d36f23001bef070050
:104dd0004e019000de019000e3ee0700020020008b
:104de00003f8230016ef07004e019000de0190004b
:104df000ddee0700a2312100631f23000fef070043
:104e000020079800310798001e01be002e00900078
:104e1000be009000d4ee07002007980031079800ec
:104e20002e009000be0090004f0478000080fa0031
:104e3000000006000c00fa004128a8004007980076
:104e4000510798006000b800008fbe00b2fd20003e
:104e500093fc23004e009000de009000f8ee070067
:104e600020079800310798002e009000be009000a7
:104e70003fff0700008fbe001e00be000080fa004a
:104e8000000006001600fa00881f7800100f980036
:104e9000210f98006000b800008fbe0000002000c5
:104ea00001f8230020079800310798000000eb006c
:104eb00040079800d0002000500798000000eb0049
:104ec000700798000000eb00600798000000eb00fe
:104ed000000f9800080037004168a800b2fd2000cc
:104ee000930424001e089000ae089000d4ee070042
:104ef000100f9800210f980018c0b300b2fd2000d9
:104f000093fc2b001e089000ae08900011ee0700e5
:104f10000000e000020035004148a8000044eb001a
:104f20000804e000ecff3a000800370041a8a800a0
:104f3000b2fd2000930424001e089000ae089000eb
:104f4000beee0700100f9800210f980018c0b300a4
:104f5000b2fd200093fc23001e089000ae089000d4
:104f6000feed07000000e00002003c004188a800c0
:104f70000044eb000804e000ecff3a0018c0b30066
:104f80006011b8001e089000ae089000f1ed070017
:104f90000000e0000200350041c8a8000044eb001a
:104fa0000804e0000a00320041e8a8001e08900052
:104fb000ae08900001f0a200100f9800210f980099
:104fc0000000200001f82b0020079800310798000e
:104fd00018c0b300d27b2300635823001e08900042
:104fe000ae089000dbed07000000e0000200350095
:104ff0004208a8000044eb000804e0002000320052
:105000004228a8006000b800008fbe0050003700a2
:10501000de0090004e009000008040000000d100b3
:10502000700798007e009000c200dd000067280035
:10503000008040001000be0018c0b3001e099000a0
:10504000ae099000c3ed07000000e000020035004b
:105050004248a8000044eb000804e00004003200cd
:105060004268a800fe009000410798000500370044
:105070004288a800fe009000510798000100370008
:1050800000000000de0090004e0090000080500004
:10509000e10f5000deff3e004e0090008000400017
:1050a000406a28000080400010007800000f98003f
:1050b0004e0090006b00b900800078000e08900050
:1050c00000804000c200dd00e06b2800008040004e
:1050d000301f7800201778000e0890000000e900cb
:1050e000600798001600370042c8a8001e0990000b
:1050f000ae0990001e00be001bee07000002be00bd
:105100004e0090006b00b900800078006e009000a7
:1051100000804000c200dd00e06b280000804000fd
:105120001000be000001be000400be0044ee0700f7
:10513000008fbe006e0090000000e900600798003c
:1051400042a8a8006e0090000000e000e6ff3d00cd
:1051500042e8a8002e019000be0190001e00be0093
:1051600001ee0700008fbe001e00be004f04780055
:105170000080fa00000006001c00fa00881f78007a
:10518000200f9800310f9800420f9800530f98009d
:105190006000b800008fbe006000b800000f9800eb
:1051a000110f98002e099000be0990002207980068
:1051b000330798004e099000de09900042079800de
:1051c000530798000000200001f8230060079800b2
:1051d0007107980018c0b3006011b8002e0090004d
:1051e000be0090005bed07000000e000020035000b
:1051f0004308a8000044eb000804e0000a00320065
:105200004328a8002e009000be00900001f0a200ec
:1052100020079800310798000000200001f82b00bb
:10522000600798007107980018c0b3006011b800bb
:105230004e009000de00900046ed07000000e00008
:10524000020035004348a8000044eb000804e000d9
:105250000b0032004368a8004e009000de00900072
:1052600001f0a20040079800510798006e009000de
:10527000fe00900001f0a2006007980071079800fe
:1052800018c0b300d27b2300635823002e00900087
:10529000be0090002fed07000000e0000200350086
:1052a0004388a8000044eb000804e000140032002a
:1052b00018c0b3006011b8004e089000de089000de
:1052c00024ed07000000e0000200350043a8a8001c
:1052d0000044eb000804e0000500320043c8a800c9
:1052e000b0fd200091042c00008fbe00ec003700c0
:1052f00043e8a8006000b800008fbe00e800370057
:1053000018c0b300d27b2300635823004e009000e6
:10531000de0090000fed07000000e0000200350005
:105320004408a8000044eb000804e0001500320027
:1053300018c0b3006011b8002e089000be0890009d
:1053400004ed07000000e000020035004428a8003a
:105350000044eb000804e000050032004448a800c7
:10536000b0fd200091fc2b00008fbe00cc00370068
:105370004468a800b0fd200091fc2300008fbe000f
:10538000c700370018c0b3004e019000de01900046
:105390002e009000be009000eeec07000000e00040
:1053a000020035004488a8000044eb000804e00037
:1053b0004100320044a8a8004e019000de01900098
:1053c0002e009000be00900085ec0700000f9800b2
:1053d000110f9800b28f250013c42b000e08900007
:1053e0009e08900060ed070052dd2e00c3dc230014
:1053f00093ed07000e0990009e0990005aed0700fa
:10540000e2982e0093e923008ced07000e0990002e
:105410009e09900054ed0700426b250043ec2300e9
:1054200087ed07000e0990009e0990004eed0700e1
:105430007295270023d8230080ed07000e09900005
:105440009e09900048ed070022e3230043ea230071
:105450007aed07000e0990009e09900042ed0700ca
:10546000e2082b0083aa230074ed07000e099000c8
:105470009e0990003ced0700621d200003f8230008
:105480006fed07000e0990009e09900036ed0700b1
:10549000f21f2900d351230068ed0700008fbe00e2
:1054a0006e019000fe0190001e00be002eed070070
:1054b000008fbe00560037002e019000be01900004
:1054c0004e009000de00900045ec0700000f9800b1
:1054d000110f980018c0b300d27b2300635823003b
:1054e0000e0890009e0890009aec07000000e00073
:1054f0000200350044c8a8000044eb000804e000a6
:105500000400320044e8a8006000b800008fbe002c
:10551000340037004508a800b28f250013c42b00c3
:105520000e0890009e0890000fed070052dd2e003f
:10553000c3dc230042ed07000e0990009e09900095
:1055400009ed0700e2982e0093e923003bed0700e8
:105550000e0990009e09900003ed0700426b2500a4
:1055600043ec230036ed07000e0990009e099000e1
:10557000fdec07007295270023d823002fed0700cc
:105580000e0990009e099000f7ec070022e323002b
:1055900043ea230029ed07000e0990009e099000c0
:1055a000f1ec0700e2082b0083aa230023ed07009b
:1055b0000e0990009e099000ebec0700621d200090
:1055c00003f823001eed07000e0990009e099000cd
:1055d000e5ec0700f21f2900d351230017ed070067
:1055e000008fbe004528a8001e01be00b0fd2000af
:1055f00091fc230011ed0700008fbe006e019000aa
:10560000fe0190001e00be00d7ec0700008fbe0018
:1056100018c0b3006011b8004e089000de0890007a
:105620004cec07000000e000020035004548a800ef
:105630000044eb004568a8000804e00018003200b0
:1056400018c0b3006011b8002e089000be0890008a
:1056500040ec07000000e000020035004588a8008b
:105660000044eb000804e0000700320045a8a80051
:10567000b2fd2000930424001e00be00efec0700e2
:10568000008fbe000600370045c8a800b2fd20000c
:10569000930424001e00be00e9ec0700008fbe004a
:1056a00045e8a8001e00be004f0478000080fa0004
:1056b000000006000c00fa00881f780040079800e0
:1056c000510798006000b800008fbe000000200065
:1056d00001f82300200798003107980018c0b30094
:1056e0000200200003f82b004e009000de00900026
:1056f00018ec07000000e000020035004608a80092
:105700000044eb000804e0000d003a0018c0b300ac
:105710000200200003f823004e009000de009000fd
:105720000eec07000000e00002003c004628a80044
:105730000044eb004648a8000804e00005003200e1
:105740004828a80000002000612c2400008fbe0023
:105750001202370018c0b3006011b8004e0090006c
:10576000de009000fbeb07000000e00002003500c7
:105770004668a8000044eb000804e0000a0032007c
:105780004688a8000000200001f82b0020079800a0
:10579000310798004e009000de00900001f0a2005a
:1057a000400798005107980018c0b300f2282c0059
:1057b00053f723004e009000de009000e5eb070059
:1057c0000000e0000200350046a8a8000044eb00fd
:1057d0000804e000c400320018c0b300626626006e
:1057e00063f623004e009000de009000d9eb070026
:1057f0000000e0000200350046c8a8000044eb00ad
:105800000804e0006b00320046e8a800a2c42e00a5
:10581000232424004e009000de00900052ec07008c
:1058200082b72a002331240084ec07004e01900047
:10583000de0190004cec070072ba2500f32f240023
:105840007fec07004e019000de01900046ec07005f
:1058500012e32f00a313240078ec07004e01900000
:10586000de01900040ec0700e2102b00132424001e
:1058700073ec07004e019000de0190003aec070047
:1058800072752100133124006cec07004e0190006a
:10589000de01900034ec070042252d004324240053
:1058a00067ec07004e019000de0190002eec07002f
:1058b000d2072100d32b240061ec07004e01900099
:1058c000de01900028ec070042a62f008328240068
:1058d0005aec07004e019000de01900022ec070018
:1058e000f22b21004320240054ec07004e019000cd
:1058f000de0190001cec070012852500032824001f
:105900004fec07004e019000de01900016ec0700fe
:1059100032022a005321240048ec07004e01900077
:10592000de01900010ec070002552d00d313240077
:1059300043ec07004e019000de0190000aec0700e6
:10594000f24b2600b30024003cec07004e0190000f
:10595000de01900004ec0700a2ad2c00b3ec2300a4
:1059600037ec07004e019000de019000feeb0700cf
:105970004209230033c5230030ec07004e0190009c
:10598000de019000f8eb0700f29f200003f82300ef
:105990002bec07004e019000de019000f2eb0700b7
:1059a000a2312100631f230024ec0700008fbe00fa
:1059b000740137004708a80092882d00f3302400b6
:1059c0004e009000de009000e7eb0700f2e32100bc
:1059d000132c240019ec07004e019000de0190000a
:1059e000e1eb070062eb25004339240013ec0700cc
:1059f0004e019000de019000dbeb070082df220009
:105a0000333624000eec07004e019000de019000ba
:105a1000d5eb0700c29820005333240007ec0700a1
:105a20004e019000de019000cfeb070012872200ac
:105a3000f33a240002ec07004e019000de019000d2
:105a4000c9eb070082412c0023192400fbeb07005f
:105a50004e019000de019000c3eb0700921f2a0068
:105a600043302400f6eb07004e019000de01900069
:105a7000bdeb070042942600233b2400efeb070018
:105a80004e019000de019000b7eb070022c828000d
:105a9000a3242400e9eb07004e019000de019000f2
:105aa000b1eb070052fc2c00931b2400e4eb070031
:105ab0004e019000de019000abeb0700827e2900d2
:105ac00013372400deeb07004e019000de0190004a
:105ad000a5eb0700625a2500a32e2400d7eb070090
